:03000000020800F3
:0C080000787FE4F6D8FD75811F020847E0
:10099E00140800C000F900A400B000990092008273
:0609AE0000F8008000903B
:10091700D2A7D2A6E4F51CF51DE4F51EF51FD2A655
:10092700C2A7AE1CAF1D7C007D0A12088CED120910
:1009370077C2A6D2A7AE1CAF1D7C007D0A12088C19
:10094700EF120977D2A7D2A6051FE51F7002051E71
:10095700C3940AE51E6480948040C3051DE51D709D
:1009670002051CC39464E51C6480948040AB80A49A
:0A09770025E02408F808E6F4F5B0C6
:10098100E4FFFEE4FDFC0DBD00010CED64644C7060
:0C099100F50FBF00010EEF64324E70E75E
:01099D002237
:10080C00020917E493A3F8E493A34003F68001F2E2
:10081C0008DFF48029E493A3F85407240CC8C333ED
:10082C00C4540F4420C8834004F456800146F6DFBC
:10083C00E4800B010204081020408090099EE47EA5
:10084C00019360BCA3FF543F30E509541FFEE493B1
:10085C00A360010ECF54C025E060A840B8E493A378
:10086C00FAE493A3F8E493A3C8C582C8CAC583CAA3
:10087C00F0A3C8C582C8CAC583CADFE9DEE780BE5B
:0109B4000042
:10088C00C2D5EC30E709B2D5E4C39DFDE49CFCEE87
:10089C0030E715B2D5E4C39FFFE49EFE1208C2C335
:1008AC00E49DFDE49CFC80031208C230D507C3E430
:0608BC009FFFE49EFE22F6
:1008C200BC000BBE0029EF8DF084FFADF022E4CC1A
:1008D200F875F008EF2FFFEE33FEEC33FCEE9DECE3
:1008E200984005FCEE9DFE0FD5F0E9E4CEFD22ED29
:1008F200F8F5F0EE8420D21CFEADF075F008EF2F73
:10090200FFED33FD4007985006D5F0F222C398FD63
:050912000FD5F0EA2200
:00000001FF
